:100000000C942A000C9447000C9447000C94470071
:100010000C9447000C9447000C9447000C94470044
:100020000C9447000C9447000C9447000C94470034
:100030000C9447000C9447000C9447000C94470024
:100040000C9447000C9447000C9447000C94470014
:100050000C94470011241FBECFE5D8E0DEBFCDBF12
:1000600012E0A0E6B0E0E8E6F7E002C005900D92ED
:10007000AA39B107D9F722E0AAE9B2E001C01D927E
:10008000AA3AB207E1F70E94EB000C94B2030C9479
:10009000000087B38F7487BB87B3806487BB80E41D
:1000A0008DB90895779BFECF8FB108950E944900C6
:1000B0000E94520090E0089582BB8BB38F7D8BBB72
:1000C0008BB38F7B8BBB8BB380688BBB82E08A95B5
:1000D000F1F700C08BB38F778BBB8FE697E1019769
:1000E000F1F700C00000089582BB8BB380628BBB28
:1000F0008BB38F7B8BBB8BB380688BBB82E08A9585
:10010000F1F700C08BB38F778BBB8FEC97E0019733
:10011000F1F700C0000008958AB3806E8ABB8FEFAC
:1001200081BB8FE39CE90197F1F700C0000088E3F1
:100130000E945C008CE00E945C0086E00E945C00F3
:1001400081E00E945C0080E80E945C0008950F93AB
:100150001F93CF93DF938C01C0E0D0E003C00E94D7
:1001600074002196F801EC0FFD1F80818111F7CFFB
:10017000DF91CF911F910F91089581E00E945C0063
:1001800080E80E945C0008950E9449000E9452008D
:100190008332D1F70E94BD002FEF84E39CE0215011
:1001A00080409040E1F700C0000008950E9449009F
:1001B0000E945200833261F40E94BD002FEF84E35D
:1001C0009CE0215080409040E1F700C0000008957D
:1001D0000E947400EBCFAF92BF92CF92DF92EF926A
:1001E000FF920F931F93CF93DF93CDB7DEB72E9778
:1001F0000FB6F894DEBF0FBECDBFCDB6DEB60E94FF
:100200008C008CE191E00E94A70080EC0E945C00D1
:100210002FEF32E587E0215030408040E1F700C009
:10022000000088E291E00E94A7000E94C40086E3DB
:1002300091E00E94A70080EC0E945C0087E491E0BE
:100240000E94A7008FE00E945C000E94D6008FE40D
:1002500091E00E94A70080EC0E945C0080E691E0A3
:100260000E94A7009FEFA2E5B7E09150A040B040E8
:10027000E1F700C000008FE00E945C000E94D60001
:100280008AE691E00E94A70080EC0E945C0087E76C
:1002900091E00E94A7002FEF32E587E02150304027
:1002A0008040E1F700C000008FE00E945C000E94E7
:1002B000D6000E9456009093A9028093A802880F4E
:1002C000991FADB7BEB7A81BB90B0FB6F894BEBF48
:1002D0000FBEADBF2DB73EB72F5F3F4F79018AE606
:1002E00091E00E94A70080EC0E945C0083E891E00E
:1002F0000E94A7003FEF82E597E031508040904098
:10030000E1F700C000008FE00E945C000E94D60070
:10031000A12CB12C67C080E991E00E94A70080EC7D
:100320000E945C0080EA91E00E94A700AFEFB2E576
:1003300027E0A150B0402040E1F700C000008FE06E
:100340000E945C000E94D60086EA91E00E94A7000D
:1003500080EC0E945C0089E891E00E94A7003FEFDA
:1003600082E597E0315080409040E1F700C0000006
:100370008FE00E945C000E94D6000E94560090937D
:10038000A3028093A202F501EE0FFF1FEE0DFF1DE9
:100390009183808300E010E01BC082EB91E00E941B
:1003A000A70080EC0E945C008DE491E00E94A70011
:1003B000AFEFB2E527E0A150B0402040E1F700C028
:1003C00000008FE00E945C000E94D6000F5F1F4F6C
:1003D0008091A2029091A30208171907F4F23FEF4F
:1003E000A31AB30A8091A8029091A902A816B9068F
:1003F0000CF491CF80EC91E00E94A7000E9456007F
:100400009093A1028093A00220E330E03A832983F5
:10041000FE01339625E0DF011D922A95E9F7880F4A
:10042000991FFC01E852FF4F4AE0BE016F5F7F4F0A
:10043000808191810E947D0380EC0E945C00CE014E
:1004400001960E94A7000E94C40000E010E03FC097
:1004500080E80E945C008AEC91E00E94A70080EC9A
:100460000E945C000E94560090939F0280939E021F
:10047000BFEF29E638E1B15020403040E1F700C03D
:10048000000080E390E099878887FE013A9685E036
:10049000DF011D928A95E9F74AE0BE01685F7F4F50
:1004A00080919E0290919F020E947D03CE0108964A
:1004B0000E94A7000E94C400BFEF24E33CE0B150BB
:1004C00020403040E1F700C000000F5F1F4F8091D7
:1004D000A8029091A902081719070CF4B9CF80E877
:1004E0000E945C0084ED91E00E94A7000E945600EB
:1004F00090939D0280939C022FED31E028874AE083
:10050000BE016F5F7F4F0E947D0380EC0E945C0004
:10051000CE0101960E94A7000E94C40080E80E94BC
:100520005C0081EE91E00E94A7000E94560090932B
:100530009B0280939A0280EC0E945C0080919A0258
:1005400090919B02880F991F880F991F805A9F4F87
:100550000E94A7000E94C40080E80E945C0080EF17
:1005600091E00E94A7000E94C4008CE00E945C0001
:1005700080E80E945C0081E092E00E94A7000E9457
:10058000C40080E80E945C008FE092E00E94A70017
:100590000E94C4000E9456009093A5028093A4027A
:1005A000019789F480E80E945C008DE192E00E944E
:1005B000A70080EC0E945C008DE292E00E94A70000
:1005C0000E94C40010C080E80E945C0080E392E0BA
:1005D0000E94A70080EC0E945C008AE292E00E94E8
:1005E000A7000E94C40080E80E945C0081E492E0C1
:1005F0000E94A70080EC0E945C0082E592E00E94CD
:10060000A7000E94C40080E80E945C008CE592E094
:100610000E94A70080EC0E945C008DE692E00E94A0
:10062000A7000E94C40000E010E047C0F801EE0FF0
:10063000FF1FEE0DFF1D80819181029734F10E9412
:1006400056009093A7028093A6028A30910551F438
:1006500080E80E945C0086E792E00E94A7000E946A
:10066000C40029C04E9739F580E80E945C0087E8F5
:1006700092E00E94A70080EC0E945C008FE892E06C
:100680000E94A7000E94C40016C00E9456009093CA
:10069000A7028093A60280E80E945C0087E892E0AF
:1006A0000E94A70080EC0E945C008FE892E00E940C
:1006B000A7000E94C4000F5F1F4F8091A802909175
:1006C000A902081719070CF4B1CF80E090E00FB62B
:1006D000F894DEBE0FBECDBE2E960FB6F894DEBFE8
:1006E0000FBECDBFDF91CF911F910F91FF90EF9083
:1006F000DF90CF90BF90AF900895BB274A3031F480
:10070000992322F4BDE2909581959F4F0C94890323
:10071000BB27FB015527AA27880F991FAA1FA417DB
:1007200010F0A41B83955051B9F7A05DAA3308F0CF
:10073000A95DA193009779F7B111B1931192CB0103
:100740000C94A203DC01FC01672F71917723E1F780
:10075000329704C07C916D9370836291AE17BF078E
:08076000C8F30895F894FFCFDF
:1007680031370000313241003734000032330000A5
:1007780033300000323100003331000031300000E6
:1007880031350000333300003100000031340000FF
:10079800313100003334000033000000390000001C
:1007A800394100003131410034410000320000007D
:1007B8003136000035000000344158003133000064
:1007C8003735000034000000370000003600000014
:1007D80033354100380000002F002E002D002C007A
:1007E8002B002A00290028002700260025002400C5
:1007F80023002200210020001F001E001D001C00F5
:100808001B001A0019001800170016001500140024
:1008180013001200110010000F000E0020202020ED
:1008280057656C636F6D65002020205468652057FC
:10083800696E64657200456E746572207072696DC8
:1008480061727920766F006C74616765203A0045A3
:100858006E746572207072696D61727920667200BB
:10086800657175656E6379203A00456E746572200E
:100878004E4F206F662000616D706561726167651B
:10088800733A00746F74616C20766F6C74733A00FD
:10089800456E74657220616D70656172616765008F
:1008A800286D41293A00456E746572206E6F206F7D
:1008B8006600456E74657220766F6C7461676500BA
:1008C80050524920535747413A0053454320535704
:1008D80047413A00636F726520617265613A003082
:1008E800004549204C414D494E4154494F4E3A002C
:1008F800506C6163652074686520426F6262696E3E
:1009080000526F7461746520426F6262696E0061A3
:10091800646A75737420626F6262696E00426F6206
:1009280062696E206973207375697461626C650011
:10093800426F6262696E2069736E6F7420737569A5
:1009480000426F6262696E206D6561737572696ECF
:100958006700636F6D706C657465640050726573D1
:1009680073202320746F2073746172740077696E2A
:1009780064696E672100496E73657274206E6578CC
:100988007420636F696C0057696E64696E670063F1
:0A0998006F6D706C657465642100DA
:00000001FF
