:100000000C942A000C9451020C9447000C94470065
:100010000C9447000C9447000C9447000C94470044
:100020000C9447000C9447000C9447000C94470034
:100030000C9447000C9447000C9447000C94470024
:100040000C9447000C9447000C9447000C94470014
:100050000C94470011241FBECFE5D8E0DEBFCDBF12
:1000600013E0A0E6B0E0E0EAF5E202C005900D92F0
:10007000A231B107D9F723E0A2E1B3E001C01D929C
:10008000A237B207E1F70E940A080C94CE120C9432
:10009000000087B3806B87BB87B38F7B87BB88B338
:1000A000806188BB81E58DB98EB18E7F8EB9089550
:1000B0008FB9779BFECF089580EF84BB8FEF85BB10
:1000C00085B38F7085BB000083B38F708093380336
:1000D0008F30B1F78FE39CE90197F1F700C0000082
:1000E00083B38F70809338038F30A1F39FEF29EF94
:1000F00080E0915020408040E1F700C0000083B3D1
:100100008F70809338038F3029F38FEE85BB00000A
:1001100083B38F70809338038F3019F010924703A8
:1001200027C08FED85BB000083B38F7080933803A9
:100130008F3021F081E0809347031AC08FEB85BB9D
:10014000000083B38F70809338038F3021F082E0FA
:10015000809347030DC08FE785BB000083B38F708A
:10016000809338038F3009F4A7CF83E0809347034F
:10017000809138038E3059F4E0914703F0E0EE0FA0
:10018000FF1FEE0FFF1FEE5FFC4F808108958D3043
:1001900059F4E0914703F0E0EE0FFF1FEE0FFF1F51
:1001A000EE5FFC4F818108958B3059F4E091470355
:1001B000F0E0EE0FFF1FEE0FFF1FEE5FFC4F82819E
:1001C0000895E0914703F0E0EE0FFF1FEE0FFF1FD1
:1001D000EE5FFC4F83810895CF930E945C00C82F8F
:1001E0008332D9F70E94490088B38F7E88BB8C2F59
:1001F0000E945800CF910895EF92FF921F93CF93E2
:10020000DF9300D000D01F92CDB7DEB780E390E03F
:100210009A838983FE01339683E0DF011D928A95DC
:10022000E9F7E12CF12C0E945C00182F833269F46D
:100230000E94490088B38F7E88BB812F0E9458009E
:10024000CE0101960E94A81213C00E94490088B3F3
:100250008F7E88BB812F0E945800E1E0F0E0EC0F18
:10026000FD1FEE0DFF1D1083BFEFEB1AFB0ADBCF66
:100270000F900F900F900F900F90DF91CF911F91E3
:10028000FF90EF900895CF93C82F0E94490088B344
:100290008F7E88BB8C2F0E945800CF91089581B328
:1002A000836081BB81B3886081BB81B38B7F81BB5D
:1002B00082B38E7F82BB82B38D7F82BB2FE788E3C0
:1002C00091E0215080409040E1F700C000008BB7E2
:1002D00080648BBF85B7816085BF789421E030E072
:1002E00019C082B3886082BB88E28A95F1F782B335
:1002F000877F82BB80912803909129036AE370E095
:100300000E9480126F5F7F4F7093270360932603D4
:100310002F5F3F4F2A30310524F3809126039091BF
:100320002703089581B3836081BB81B3886081BB5B
:1003300081B38B7F81BB82B3816082BB82B38D7FAF
:1003400082BB2FE788E391E0215080409040E1F7A5
:1003500000C000008BB780648BBF85B7816085BF0C
:10036000789421E030E019C082B3886082BB88E2D3
:100370008A95F1F782B3877F82BB809128039091A1
:1003800029036AE370E00E9480126F5F7F4F7093D1
:100390002503609324032F5F3F4F2A30310524F358
:1003A0008091240390912503089581B3836081BBDC
:1003B00081B3886081BB81B38B7F81BB82B38E7F29
:1003C00082BB82B3826082BB2FE788E391E0215039
:1003D00080409040E1F700C000008BB780648BBF85
:1003E00085B7816085BF789482B3886082BB28E23C
:1003F0002A95F1F782B3877F82BB80912803909181
:1004000029036AE370E00E9480126F5F7F4F709350
:100410002303609322038FEF87BB82B38F7E82BB5F
:1004200088B3807F88BB88B38860887F816088BB01
:100430008FEF90E722E0815090402040E1F700C02C
:10044000000088B38C7F8C6088BB8FEF90E722E040
:10045000815090402040E1F700C0000088B3807FC9
:10046000866088BB8FEF90E722E08150904020406B
:10047000E1F700C0000088B3807F836088BB8FEF06
:1004800090E722E0815090402040E1F700C000005A
:100490008091220390912303833291050CF0A4CF25
:1004A00008951F920F920FB60F9211248F939F936E
:1004B0008091120390911303019769F41EBC8CB5CF
:1004C0009DB590932903809328031DBC1CBC1092FA
:1004D0001303109212038091120390911303892B3E
:1004E00049F48EB581608EBD81E090E09093130356
:1004F000809312039F918F910F900FBE0F901F90CA
:1005000018958AB380688ABB80E090E019C02BB34D
:1005100020682BBB2FEF39E648E1215030404040A6
:10052000E1F700C000002BB32F772BBB2FEF39E68C
:1005300048E1215030404040E1F700C00000019602
:100540008230910524F30895AC018FEF8ABB8BB301
:10055000807F8BBB20E030E037C09BB39860987FF2
:1005600091609BBB6FEF89E698E1615080409040BD
:10057000E1F700C000009BB39C7F9C609BBB6FEFCA
:1005800089E698E1615080409040E1F700C00000AA
:100590009BB3907F96609BBB6FEF89E698E16150BB
:1005A00080409040E1F700C000009BB3907F9360D3
:1005B0009BBB6FEF89E698E1615080409040E1F786
:1005C00000C000002F5F3F4F2417350734F2089515
:1005D0008FEF8ABB8BB3807F8BBB2FEF80E792E0DE
:1005E000215080409040E1F700C000008BB388604C
:1005F000887F81608BBB2FEF89E698E12150804096
:100600009040E1F700C000008BB38C7F8C608BBB07
:100610002FEF89E698E1215080409040E1F700C03B
:10062000000008958FEF8ABB8BB3807F86608BBB01
:100630002FEF89E698E1215080409040E1F700C01B
:1006400000008BB3807F83608BBB2FEF89E698E13E
:10065000215080409040E1F700C000000895AC01B7
:100660008FEF8ABB8BB3807F8BBB20E030E037C03D
:100670009BB3907F96609BBB6FEF89E698E16150DA
:1006800080409040E1F700C000009BB39C7F9C60DD
:100690009BBB6FEF89E698E1615080409040E1F7A5
:1006A00000C000009BB39860987F91609BBB6FEF88
:1006B00089E698E1615080409040E1F700C0000079
:1006C0009BB3907F93609BBB6FEF89E698E161508D
:1006D00080409040E1F700C000002F5F3F4F24179B
:1006E000350734F2089581B3806281BB1DBC1CBC08
:1006F00083EC99E097BD86BD82E88FBD8BE18EBD0E
:100700008CE291E09BBD8ABD2FEF8EE994E22150EF
:1007100080409040E1F700C000008BEB90E09BBD73
:100720008ABD2FEF8EE994E2215080409040E1F79E
:1007300000C00000089581B3806281BB1DBC1CBC59
:1007400083EC99E097BD86BD82E88FBD8BE18EBDBD
:100750008CE291E09BBD8ABD2FEF8EE994E221509F
:1007600080409040E1F700C00000089581B38062AE
:1007700081BB1DBC1CBC83EC99E097BD86BD82E8A3
:100780008FBD8BE18EBD8BEB90E09BBD8ABD2FEFC3
:100790008EE994E2215080409040E1F700C00000D3
:1007A00008958FEF87BB88B3807F88BB88B388604C
:1007B000887F816088BB2FEF89E698E121508040D7
:1007C0009040E1F700C0000088B3807F836088BB61
:1007D0002FEF89E698E1215080409040E1F700C07A
:1007E000000008958BB38F788BBB81E090E00E946E
:1007F000A40208952BB32F7820612BBB0E94A40282
:1008000008952BB32F7820622BBB0E94A402089579
:100810002BB32F7820622BBB0E942F0308952BB39C
:100820002F7820612BBB0E942F0308952BB32F78C4
:1008300020632BBB0E94A40282B38F7B806882BBA3
:100840000E94730308952BB32F7820632BBB0E9463
:10085000A4020895CF92DF92EF92FF92CF93DF939D
:10086000EB01BC01990F880B990B0E9403112AE040
:1008700037ED43E25CE30E94B8116B017C0120E09C
:1008800030E0A9010E945410882334F40E94F2033E
:10089000CE010E94FA031CC02DEC3CEC4CEC5DE355
:1008A000C701B6010E945410882354F40E94F20339
:1008B000CE010E94FA0382E090E00E94160408C074
:1008C0000E94F203CE010E94FA03CE010E9423048B
:1008D000DF91CF91FF90EF90DF90CF9008952BB3F1
:1008E0002F7820632BBB0E942F0308952BB32F7CFE
:1008F00020642BBB0E94A40282B3806C82BB0E9446
:10090000730308952BB32F7C20642BBB0E94A40299
:100910000895CF92DF92EF92FF92CF93DF93EB0196
:10092000BC01990F880B990B0E9403112AE037ED47
:1009300043E25CE30E94B8116B017C0120E030E0EF
:10094000A9010E945410882334F40E94F203CE01BE
:100950000E940F041CC02DEC3CEC4CEC5DE3C70185
:10096000B6010E945410882354F40E94F203CE0171
:100970000E940F0482E090E00E94760408C00E946A
:10098000F203CE010E940F04CE010E948204DF9187
:10099000CF91FF90EF90DF90CF900895EF92FF926C
:1009A0000F931F93CF93DF93EC017B01CB018170F9
:1009B0009078992324F401978E6F9F6F0196019789
:1009C00021F48A010C1B1D0B02C000E010E08BB368
:1009D0008F7880628BBBC80101960E942F0382B37F
:1009E0008F73806482BB0E949B038BB380648F7C77
:1009F00080618BBB0E94E8028BB38F7E80668BBBCD
:100A000082E090E00E94A4028BB38F7880628BBB5F
:100A100082E090E00E94A4028BB380648F7C8061AE
:100A20008BBB0E94120382B38F73806482BB0E94CF
:100A3000B6038BB38F7880618BBBC80105960E948B
:100A40002F038BB380648F7C80618BBB81E090E04F
:100A50000E942F038BB38F7E80668BBB82E090E079
:100A60000E942F03E0FC04C0CE010E94760403C064
:100A7000CE010E941604DF91CF911F910F91FF903C
:100A8000EF900895019721F4CB010E946F0408951F
:100A9000CB010E94820408958BB380678BBB82E0F8
:100AA00090E00E94A40282B3806182BB0E94D103C5
:100AB0008BB380678BBB82E090E00E942F03089588
:100AC0002BB32F7820612BBB9C01269FC001279F51
:100AD000900D369F900D112401960E942F0382B332
:100AE0008F7382BB0E949B030E944C0582B38F735D
:100AF00082BB0E94B6038BB38F7880618BBB83E08F
:100B000090E00E94A40208952BB32F7820622BBBA3
:100B10009C01269FC001279F900D369F900D1124A8
:100B200001960E942F0382B38F73806482BB0E9460
:100B30009B030E944C0582B38F73806482BB0E942A
:100B4000B6038BB38F7880628BBB83E090E00E940A
:100B5000A4020895AF92BF92CF92DF92EF92FF92DC
:100B60000F931F93CF93DF937C015B018A01C12C0C
:100B7000D12C0A151B050CF04DC0C09EC001C19EB2
:100B8000900DD09E900D1124E501C81BD90B0C17B8
:100B90001D0714F5C0FE0AC0C0E0D0E016C00E94D8
:100BA000F203C7010E94FA03219602C0C0E0D0E020
:100BB000C017D107A4F38FEFC81AD80ADACF0E9462
:100BC000F203C7010E940F042196C017D107BCF39E
:100BD0009FEFC91AD90ACDCFC0FE0BC0A12CB12CF2
:100BE00015C08FEFA81AB80AB701C5010E942A04E0
:100BF00002C0A12CB12CAC16BD069CF31AC09FEF0D
:100C0000A91AB90AB701C5010E948904AC16BD062C
:100C1000B4F30FC01A141B040CF0ABCF0E94F20304
:100C2000C7010E94FA03B70181E090E00E942A0404
:100C3000A0CF81E0C82280E8D822DD2054F491E0E2
:100C4000C91AD1088EEFC82ADD24DA949FEFC91A99
:100C5000D90ACA94CD2821F4C8018C1B9D0BEC0144
:100C6000B701CE010E946005DF91CF911F910F91D6
:100C7000FF90EF90DF90CF90BF90AF900895AF922C
:100C8000BF92CF92DF92EF92FF920F931F93CF9379
:100C9000DF937C015B018A01C12CD12C0A151B0555
:100CA0000CF04DC0C09EC001C19E900DD09E900D15
:100CB0001124E501C81BD90B0C171D0714F5C0FE44
:100CC0000AC0C0E0D0E016C00E94F203C7010E9433
:100CD0000104219602C0C0E0D0E0C017D107A4F300
:100CE0008FEFC81AD80ADACF0E94F203C7010E9418
:100CF00008042196C017D107BCF39FEFC91AD90A7F
:100D0000CDCFC0FE0BC0A12CB12C15C08FEFA81AFF
:100D1000B80AB701C5010E942A0402C0A12CB12C57
:100D2000AC16BD069CF31AC09FEFA91AB90AB70109
:100D3000C5010E948904AC16BD06B4F30FC01A1495
:100D40001B040CF0ABCF0E94F203C7010E94010408
:100D5000B70181E090E00E942A04A0CF81E0C82280
:100D600080E8D822DD2054F491E0C91AD1088EEF32
:100D7000C82ADD24DA949FEFC91AD90ACA94CD286B
:100D800021F4C8018C1B9D0BEC01B701CE010E9420
:100D90008405DF91CF911F910F91FF90EF90DF902D
:100DA000CF90BF90AF9008952F923F924F925F9255
:100DB0006F927F928F929F92AF92BF92CF92DF926B
:100DC000EF92FF920F931F93CF93DF9300D000D049
:100DD00000D0CDB7DEB78C017B015C834B833A83B7
:100DE0002983412C512C1E821D82C12CD12C812C97
:100DF000912CCBC0F201EE0FFF1F2B813C81E20F43
:100E0000F31F80809180E814F9040CF0AFC0CE9CF1
:100E1000C001CF9C900DDE9C900D11245401A81AA6
:100E2000B90AEA14FB040CF05CC0C0FE27C0A12C78
:100E3000B12C50C08D819E81181619068CF40E9429
:100E4000F203C8010E940104B80182E090E00E9410
:100E500042052D813E81215031093E832D830AC0F8
:100E60000E94F203C8010E9401048D819E810197B6
:100E70009E838D839FEFA91AB90A02C0A12CB12CC1
:100E8000AE14BF04BCF22FEFC21AD20ABCCF8D81C0
:100E90009E81181619068CF40E94F203C8010E9464
:100EA0000804B80181E090E00E9442052D813E8156
:100EB000215031093E832D830AC00E94F203C801EC
:100EC0000E9408048D819E8101979E838D839FEFF0
:100ED000A91AB90AAE14BF04D4F22FEFC21AD20A6B
:100EE00092CFC0FE0FC0612C712C24C013013FEFC4
:100EF000231A330AB801C1010E942A047E826D823E
:100F0000310102C0612C712C6A147B047CF39801BE
:100F1000A701B6018D819E810E94CE0433C01301CA
:100F20008FEF281A380AB801C1010E9489047E8215
:100F30006D8231016A147B0494F39801A701B60114
:100F40008D819E810E94CE041DC00E94F203C801C3
:100F50000E94010435019FEF691A790AB801C301A3
:100F60000E942A04BE82AD82530102C0A12CB12C82
:100F7000A814B90454F39801A701B6018D819E818C
:100F80000E94CE042FEF421A520A89819A81481694
:100F900059060CF42FCFC60181709078992324F460
:100FA00001978E6F9F6F0196019769F4CE9CC001E7
:100FB000CF9C900DDE9C900D1124881A990AC701D0
:100FC000881999090BC0CE9CC001CF9C900DDE9C66
:100FD000900D11249401281B390BC901B8010E94FE
:100FE000840526960FB6F894DEBF0FBECDBFDF9105
:100FF000CF911F910F91FF90EF90DF90CF90BF9016
:10100000AF909F908F907F906F905F904F903F90A8
:101010002F9008952F923F924F925F926F927F92FE
:101020008F929F92AF92BF92CF92DF92EF92FF92F8
:101030000F931F93CF93DF93CDB7DEB766970FB6AD
:10104000F894DEBF0FBECDBF2DB73EB73E8B2D8BC4
:101050000E94EC000E94FC00BC01990F880B990BC8
:101060000E940311609368037093690380936A037D
:1010700090936B030E94FC00BC01990F880B990BA5
:101080000E94031160935E0370935F03809360037B
:10109000909361030E94FC009093010380930003EE
:1010A0000E9443018091000390910103880F991FD2
:1010B000880F991F4DB75EB7481B590B0FB6F894B0
:1010C0005EBF0FBE4DBF6DB77EB76F5F7F4F7E8334
:1010D0006D830E94FC009093FF028093FE0220919A
:1010E000000330910103A901440F551FADB7BEB7EE
:1010F000A41BB50B0FB6F894BEBF0FBEADBFEDB7C6
:10110000FEB731962F01AC01440F551F440F551FF8
:101110006DB77EB7641B750B0FB6F8947EBF0FBE1C
:101120006DBFADB7BEB711965D01880F991FEDB7C2
:10113000FEB7E81BF90B0FB6F894FEBF0FBEEDBF6C
:101140004DB75EB74F5F5F4F1A01220F331F220F5B
:10115000331F6DB77EB7621B730B0FB6F8947EBF5B
:101160000FBE6DBFADB7BEB711967D01EDB7FEB72F
:10117000E21BF30B0FB6F894FEBF0FBEEDBF4DB7E9
:101180005EB74F5F5F4F5A8749876DB77EB7621B67
:10119000730B0FB6F8947EBF0FBE6DBFADB7BEB771
:1011A00011963D01EDB7FEB7E81BF90B0FB6F894A9
:1011B000FEBF0FBEEDBF2DB73EB72F5F3F4F388B41
:1011C0002F87812C912CC12CD12C4DC00E94FC006A
:1011D000BC01990F880B990B0E940311F401EE0FCB
:1011E000FF1FEE0FFF1F4D815E81E40FF51F60832F
:1011F0007183828393830E94FC00909315038093F4
:101200001403F401EE0FFF1FE40DF51D918380839D
:1012100080911403909115030E94430100E010E0B7
:1012200018C00E94FC00BC01990F880B990B0E940A
:101230000311F601EE0FFF1FEE0FFF1FEA0DFB1D5E
:1012400060837183828393835FEFC51AD50A0F5F32
:101250001F4F8091140390911503081719070CF381
:101260006FEF861A960A8091000390910103881609
:1012700099060CF4ABCF9A838983812C912CC12CD5
:10128000D12C41C0F401EE0FFF1FEE0FFF1F8D8127
:101290009E81E80FF91F6081718182819381F6013F
:1012A000EE0FFF1FEE0FFF1FEA0DFB1D20813181A6
:1012B000428153810E94B811209141033091420331
:1012C00040914303509144030E94E80F609341030F
:1012D0007093420380934303909344039FEFC91A92
:1012E000D90A0F5F1F4F02C000E010E0F401EE0FBB
:1012F000FF1FE40DF51D808191810817190714F275
:10130000AFEF8A1A9A0AE981FA818E169F0664F372
:1013100020E030E04AE754E46091410370914203D9
:1013200080914303909144030E94591060932A03D3
:1013300070932B0380932C0390932D0323E333E3CB
:1013400043E95FE30E94B81169837A838B839C83AE
:101350006093390370933A0380933B0390933C036B
:101360000E942B122CEB34E743E95FE30E94B81193
:10137000698B7A8B8B8B9C8B60936E0370936F035E
:1013800080937003909371032091680330916903F7
:1013900040916A0350916B032B873C874D875E8792
:1013A00069817A818B819C810E94591020E030E014
:1013B0004AE754E40E94B8116093480370934903CC
:1013C00080934A0390934B032DEC3CEC4CE850E4A3
:1013D00060915E0370915F0380916003909161035F
:1013E0000E94B8119B01AC0169897A898B899C891B
:1013F0000E94B81126E636E646EA5FE30E94B8117D
:101400009B01AC0160E070E48CE196E40E9459100D
:101410009B01AC0160935A0370935B0380935C0360
:1014200090935D036B857C858D859E850E94B811A8
:101430000E94CB106F5F7F4F70936D0360936C03BE
:1014400000E010E022C0F801EE0FFF1FEE0FFF1FBB
:10145000EA0DFB1D608171818281938120915A0385
:1014600030915B0340915C0350915D030E94B81181
:101470000E94CB106F5F7F4FF801EE0FFF1FE20D50
:10148000F31D718360830F5F1F4F8091FE02909167
:10149000FF0208171907BCF200E010E0FA82E982A7
:1014A00070C0F801EE0FFF1FEE0FFF1FE851FE4F57
:1014B000C080D180E280F3808090480390904903FF
:1014C000A0904A03B0904B03A5019401C701B60157
:1014D0000E94B3118823E4F0E980FA80F801EE0F4E
:1014E000FF1FEE0FFF1FE059FD4F80819181A28108
:1014F000B38180933D0390933E03A0933F03B09349
:1015000040031093460300934503C12CD12CC1C066
:10151000A5019401C701B6010E94541088237CF5EF
:1015200068013FEFC31AD30AF601EE0FFF1FEE0F5B
:10153000FF1FE851FE4F2081318142815381C50157
:10154000B4010E9454108823D4F4E980FA80F60193
:10155000EE0FFF1FEE0FFF1FE059FD4F80819181BD
:10156000A281B38180933D0390933E03A0933F03F8
:10157000B0934003D0924603C0924503C6CF0F5F9D
:101580001F4F023211050CF48CCFE980FA80BDCFD9
:10159000F801EE0FFF1FEE0FFF1FE851FE4F4081D5
:1015A00051816281738149835A836B837C83F60105
:1015B000EE0FFF1FEE0FFF1F6D817E81E60FF71FFD
:1015C00080809180A280B380A501940169817A8195
:1015D0008B819C810E94B3118823BCF0000F111FE6
:1015E000000F111FF801E059FD4F80819181A28108
:1015F000B381F601EE0FFF1FEE0FFF1FEE0DFF1D73
:1016000080839183A283B38341C0A5019401698142
:101610007A818B819C810E945410882374F5C801C3
:1016200001969A838983FC01EE0FFF1FEE0FFF1FC7
:10163000E851FE4F2081318142815381C501B401BF
:101640000E9454108823CCF4A980BA80F501EE0FD3
:10165000FF1FEE0FFF1FE059FD4F80819181A28196
:10166000B381F601EE0FFF1FEE0FFF1FEE0DFF1D02
:1016700080839183A283B38309C00F5F1F4F02C091
:1016800000E010E0033211050CF482CF9FEFC91A7D
:10169000D90A8091000390910103C816D90684F3FA
:1016A000C12CD12C41C0F801EE0FFF1FEE0FFF1F20
:1016B000E059FD4F6081718182819381F601EE0FC7
:1016C000FF1FEE0FFF1FEE0DFF1D208131814281B4
:1016D00053810E94541081111CC0F801EE0FFF1FAE
:1016E000EE0FFF1FE05AFF4F60817181828193816D
:1016F0002AE037ED43E25CE30E945910F601EE0F59
:10170000FF1FEE0FFF1FE60DF71D608371838283BD
:1017100093830F5F1F4F02C000E010E003321105FA
:1017200014F2AFEFCA1ADA0A809100039091010314
:10173000C816D9068CF300E010E02DC0F801EE0FBA
:10174000FF1FEE0FFF1FE059FD4F60817181828105
:10175000938120913D0330913E0340913F0350918E
:1017600040030E945410811114C0F801EE0FFF1FB6
:10177000EE0FFF1FE05AFE4F80819181A281B3815D
:101780008093300390933103A0933203B0933303DB
:1017900005C00F5F1F4F0232110584F200E010E018
:1017A00037C0F801EE0FFF1FEE0FFF1FE059FD4F8E
:1017B000608171818281938120913D0330913E034C
:1017C00040913F03509140030E94541081111EC06C
:1017D000F801EE0FFF1FEE0FFF1FE05AFF4F608171
:1017E0007181828193812AE037ED43E25CE30E94BC
:1017F000591060934E0370934F038093500390935E
:101800005103C12CD12C09851A8544C00F5F1F4F8D
:101810000232110534F2F5CFF501EE0FFF1FEE0F86
:10182000FF1FE059FD4F6081718182819381F60134
:10183000EE0FFF1FEE0FFF1FEE0DFF1D2081318108
:10184000428153810E945410811117C0F501EE0F9F
:10185000FF1FEE0FFF1FE05AFE4F80819181A28192
:10186000B381F601EE0FFF1FEE0FFF1FE00FF11F18
:1018700080839183A283B3830AC0BFEFAB1ABB0AF4
:1018800002C0A12CB12CE3E2AE16B1042CF2FFEFA2
:10189000CF1ADF0A8090000390900103C814D90486
:1018A00084F360916C0370916D03072E000C880B1C
:1018B000990B0E9403112091300330913103409124
:1018C0003203509133030E94591020911E0330912E
:1018D0001F0340912003509121030E94E80F698368
:1018E0007A838B839C8360931E0370931F03809382
:1018F000200390932103A12CB12CC12CD12C44C0E6
:10190000F601EE0FFF1FE20DF31D60817181072EBE
:10191000000C880B990B0E940311F501EE0FFF1FBD
:10192000EE0FFF1F29853A85E20FF31F20813181D9
:10193000428153810E94591020911A0330911B0358
:1019400040911C0350911D030E94E80F60931A03FD
:1019500070931B0380931C0390931D033FEFC31AE6
:10196000D30A0F5F1F4F02C000E010E0F501EE0F39
:10197000FF1FE40DF51D80819181081719070CF4F4
:10198000BFCF4FEFA41AB40AA814B9046CF3209186
:101990001A0330911B0340911C0350911D03698170
:1019A0007A818B819C810E94E80F4B015C016093DE
:1019B000160370931703809318039093190300E0A4
:1019C00010E0FA82E98246C0F801EE0FFF1FEE0F29
:1019D000FF1FE851FF4FC080D180E280F380A70154
:1019E0009601C501B4010E94541018166CF0E980EC
:1019F000FA8010934D0300934C03A0E0B0E020E088
:101A000030E04F85588966C0A7019601C501B40131
:101A10000E94B3111816E4F468015FEFC51AD50AE5
:101A2000F601EE0FFF1FEE0FFF1FE851FF4F208161
:101A3000318142815381C501B4010E945410882331
:101A40003CF4E980FA80D0924D03C0924C03D5CF8C
:101A50000F5F1F4F0E3111050CF4B6CFE980FA80ED
:101A6000CCCF009771F4B901660F771FF101E60F33
:101A7000F71F00811181640F751FFB011183008323
:101A800018C0B901660F771FF101E60FF71F00813B
:101A90001181F9013197EE0FFF1FE20DF31D019047
:101AA000F081E02D0E1B1F0BFA01E60FF71F1183CB
:101AB00000832F5F3F4F019602C080E090E0FD0160
:101AC000EE0FFF1FE40DF51D6081718186179707EA
:101AD00044F211968091000390910103A817B90771
:101AE00064F380914503909146030E9443010E9454
:101AF000EC0000E010E02FC0F801EE0FFF1FEE0F2A
:101B0000FF1FEE0DFF1D60817181828193810E9414
:101B1000CB10FFEF24E33CE0F15020403040E1F7F0
:101B200000C00000CB010E9443014FEF59E668E17D
:101B3000415050406040E1F700C000000E94EC00BE
:101B40007FEF84E39CE0715080409040E1F700C05B
:101B500000000F5F1F4F8091000390910103081751
:101B6000190754F260916E0370916F0380917003B6
:101B7000909171030E94CB108B01CB010E94430115
:101B80000E94EC0080914C0390914D030E94430110
:101B90000E94EC000E9481020E94EC000E944F0112
:101BA00090935303809352030E94920190935903A0
:101BB000809358032091FC023091FD024091520322
:101BC00050915303241B350BD901A81BB90BB093BB
:101BD0003503A09334030E9481020E94EC000E940E
:101BE0004F0190933703809336030E9492019093A4
:101BF0006303809362032091FA023091FB024091CB
:101C0000360350913703241B350BF901E81BF90B00
:101C1000F0936703E09366030E94EC000E94D501F5
:101C200090935503809354032091F8023091F90268
:101C3000A901481B590B50936503409364034091DD
:101C40003403509135032091660330916703429F1E
:101C5000C001439F900D529F900D112490932F032C
:101C600080932E03081719073CF481E090E00E944E
:101C700043010E94EC0006C082E090E00E94430114
:101C80000E94EC000E94EC000E94EC0080904E0349
:101C900090904F03A0905003B09051032AE037ED8D
:101CA00043E25CE3C501B4010E94B8116B017C0101
:101CB0006091640370916503072E000C880B990BEB
:101CC0000E940311A70196010E9459100E94CB1097
:101CD0006B017C0100916C0310916D03C501B4018F
:101CE0000E94CB10DC01CB01A601B8010E94AA051D
:101CF0008091000390910103BC01615071097C87C0
:101D00006B87A12CB12C212C312CEF84F88835C1A4
:101D1000F501EE0FFF1FE40DF51D408151814230AA
:101D200051050CF4ACC08DB79EB79A8789879FEF99
:101D3000A4E3BCE09150A040B040E1F700C0000037
:101D4000CA01880F991FEDB7FEB7E81BF90B0FB654
:101D5000F894FEBF0FBEEDBF0DB71EB70F5F1F4F4C
:101D600080E090E01BC0F101EE0FFF1FEE0DFF1DA4
:101D700020813181FC01EE0FFF1FE00FF11F318345
:101D80002083FFEF29E638E1F15020403040E1F7B1
:101D900000C000006FEF261A360A019684179507D7
:101DA00014F3C12CD12C42C0F501EE0FFF1FEE0F32
:101DB000FF1FE60DF71D80819181A281B381898388
:101DC0009A83AB83BC832AE037ED43E25CE3BC013A
:101DD000CD010E94B8116D837E838F8398876091B7
:101DE000640370916503072E000C880B990B0E9409
:101DF00003112D813E814F8158850E9459100E9408
:101E0000CB106D837E838F83988769817A818B81E4
:101E10009C810E94CB10DC01CB019401A8016D8153
:101E20007E810E94D4069FEFC91AD90AF501EE0FF0
:101E3000FF1FE40DF51D80809180C814D9040CF4B7
:101E4000B3CFAB85BC85AA16BB0649F48EE190E002
:101E50000E9443010E9481020E94EC0008C08AE0B7
:101E600090E00E9443010E9481020E94EC00E985FB
:101E7000FA850FB6F894FEBF0FBEEDBF7BC08DB6DE
:101E80009EB6D2018D919C91880F991FEDB7FEB738
:101E9000E81BF90B0FB6F894FEBF0FBEEDBF0DB7F0
:101EA0001EB70F5F1F4FB80180E090E020E030E0E8
:101EB00011C0F901EE0FFF1FEE0DFF1D4081518192
:101EC000FC01EE0FFF1FE60FF71F518340832F5FCA
:101ED0003F4F0196D2014D915C91841795074CF3C9
:101EE000D3012D913D914D915C9129833A834B8390
:101EF0005C832AE037ED43E25CE369817A818B8180
:101F00009C810E94B8116D837E838F839887609136
:101F1000640370916503072E000C880B990B0E94D7
:101F200003112D813E814F8158850E9459100E94D6
:101F3000CB106D837E838F839887F8010081118198
:101F400069817A818B819C810E94CB10DC01CB015D
:101F50004D815E81B8010E943F060E94810284E1AA
:101F600090E00E9443010E94EC000FB6F8949EBEE0
:101F70000FBE8DBEFFEFAF1ABF0A80910003909194
:101F80000103A816B9060CF4C3CE80E090E02D89B9
:101F90003E890FB6F8943EBF0FBE2DBF66960FB6B2
:101FA000F894DEBF0FBECDBFDF91CF911F910F918F
:101FB000FF90EF90DF90CF90BF90AF909F908F9069
:101FC0007F906F905F904F903F902F900895505862
:101FD000BB27AA270E94FF0F0C9479110E946B1156
:101FE00038F00E94721120F039F49F3F19F426F462
:101FF0000C9468110EF4E095E7FB0C946211E92F44
:102000000E948A1158F3BA1762077307840795076D
:1020100020F079F4A6F50C94AC110EF4E0950B2E9B
:10202000BA2FA02D0B01B90190010C01CA01A0012A
:102030001124FF27591B99F0593F50F4503E68F185
:102040001A16F040A22F232F342F4427585FF3CFC6
:10205000469537952795A795F0405395C9F77EF497
:102060001F16BA0B620B730B840BBAF09150A1F0E0
:10207000FF0FBB1F661F771F881FC2F70EC0BA0F66
:10208000621F731F841F48F4879577956795B795EE
:10209000F7959E3F08F0B0CF9395880F08F09927E9
:1020A000EE0F9795879508950E943E1108F481E000
:1020B00008950E946D100C9479110E94721158F0CD
:1020C0000E946B1140F029F45F3F29F00C946211DB
:1020D00051110C94AD110C9468110E948A1168F38F
:1020E0009923B1F3552391F3951B550BBB27AA27D1
:1020F00062177307840738F09F5F5F4F220F331F0B
:10210000441FAA1FA9F335D00E2E3AF0E0E832D0D2
:1021100091505040E695001CCAF72BD0FE2F29D0D5
:10212000660F771F881FBB1F261737074807AB07A7
:10213000B0E809F0BB0B802DBF01FF2793585F4F1C
:102140003AF09E3F510578F00C9462110C94AD1159
:102150005F3FE4F3983ED4F3869577956795B795FE
:10216000F7959F5FC9F7880F911D9695879597F909
:102170000895E1E0660F771F881FBB1F6217730782
:102180008407BA0720F0621B730B840BBA0BEE1F97
:1021900088F7E09508950E94D2106894B1110C94CC
:1021A000AD1108950E94921188F09F5798F0B92FB1
:1021B0009927B751B0F0E1F0660F771F881F991F7C
:1021C0001AF0BA95C9F714C0B13091F00E94AC1161
:1021D000B1E008950C94AC11672F782F8827B85F71
:1021E00039F0B93FCCF3869577956795B395D9F7D4
:1021F0003EF490958095709561957F4F8F4F9F4FDE
:102200000895E89409C097FB3EF4909580957095E9
:1022100061957F4F8F4F9F4F9923A9F0F92F96E932
:10222000BB279395F695879577956795B795F111A7
:10223000F8CFFAF4BB0F11F460FF1BC06F5F7F4F44
:102240008F4F9F4F16C0882311F096E911C0772356
:1022500021F09EE8872F762F05C0662371F096E85F
:10226000862F70E060E02AF09A95660F771F881F2E
:10227000DAF7880F9695879597F90895990F0008D2
:10228000550FAA0BE0E8FEEF16161706E807F90748
:10229000C0F012161306E407F50798F0621B730BE3
:1022A000840B950B39F40A2661F0232B242B252B64
:1022B00021F408950A2609F4A140A6958FEF811D07
:1022C000811D089597F99F6780E870E060E00895A8
:1022D0009FEF80EC089500240A941616170618063E
:1022E0000906089500240A9412161306140605061A
:1022F0000895092E0394000C11F4882352F0BB0FAB
:1023000040F4BF2B11F460FF04C06F5F7F4F8F4F0D
:102310009F4F089557FD9058440F551F59F05F3F48
:1023200071F04795880F97FB991F61F09F3F79F0F7
:1023300087950895121613061406551FF2CF469579
:10234000F1DF08C0161617061806991FF1CF8695FB
:102350007105610508940895E894BB2766277727DF
:10236000CB0197F908950E943E1108F48FEF08956C
:102370000E94CB110C9479110E946B1138F00E94CD
:10238000721120F0952311F00C9462110C946811D5
:1023900011240C94AD110E948A1170F3959FC1F322
:1023A000950F50E0551F629FF001729FBB27F00D03
:1023B000B11D639FAA27F00DB11DAA1F649F662758
:1023C000B00DA11D661F829F2227B00DA11D621FA7
:1023D000739FB00DA11D621F839FA00D611D221F61
:1023E000749F3327A00D611D231F849F600D211D45
:1023F000822F762F6A2F11249F5750409AF0F1F0C8
:1024000088234AF0EE0FFF1FBB1F661F771F881F30
:1024100091505040A9F79E3F510580F00C946211F5
:102420000C94AD115F3FE4F3983ED4F38695779515
:102430006795B795F795E7959F5FC1F7FE2B880FD6
:10244000911D9695879597F9089519F416F40C94B3
:1024500068110C946B120E949211B8F39923C9F37E
:10246000B6F39F57550B87FF0E9479120024A0E610
:1024700040EA900180585695979528F4805C660F45
:10248000771F881F20F026173707480730F4621B94
:10249000730B840B202931294A2BA6951794079496
:1024A000202531254A2758F7660F771F881F20F00F
:1024B00026173707480730F4620B730B840B200D87
:1024C000311D411DA09581F7B901842F9158880FC6
:1024D0009695879508959F3F31F0915020F4879508
:1024E00077956795B795880F911D9695879597F97C
:1024F000089591505040660F771F881FD2F70895B6
:1025000097FB072E16F4009407D077FD09D00E94A0
:10251000941207FC05D03EF4909581959F4F089545
:10252000709561957F4F0895AA1BBB1B51E107C0B1
:10253000AA1FBB1FA617B70710F0A61BB70B881F53
:10254000991F5A95A9F780959095BC01CD010895E2
:10255000FC0188279927E89421912032E9F329305A
:1025600010F02E30C8F32B3241F02D3239F468943C
:1025700004C00E94C612820F911D219120532A305F
:10258000C0F31EF4909581959F4F08957AE0979F30
:10259000902D879F802D910D11240895F894FFCFE1
:1025A000CDCC4C3D8FC2753D295C8F3D0AD7A33DF4
:1025B000EC51B83DCDCCCC3DAE47E13D8FC2F53DB1
:1025C000B81E053E9A99193E7B142E3E5C8F423E02
:1025D0003D0A573E1F856B3E0000803E713D8A3E9E
:1025E000E17A943E52B89E3E7B14AE3EA470BD3E4E
:1025F00085EBD13E6666E63E0000003FCDCC0C3F49
:10260000F6281C3F8FC2353F295C4F3FC3F5683F1A
:10261000AE47813F48E19A3F8FC2B53F295CCF3F2B
:10262000C3F5E83F85EB014096439B3FE5D0F23F81
:102630000E2D1240A2452E4000004040560E55403F
:10264000F4FD6C404A0C8E4017D99A40F628BC40E5
:102650008FC2D1408FC2D140BA49E840BA49E84060
:10266000E7FBF14014AEFB4014AEFB40E9261141FC
:10267000448B244189412E4189412E4196434B414F
:10268000BE9F50413BDF61411B2F75410AD77D4101
:1026900083C0974117D99A4196431D42463623423B
:1026A0000034D74600FE9D4600E0604600043346F5
:1026B00000E411460058F2450078CC4500D8AE45FC
:1026C0000030974500305B4500002F4500E00E4587
:1026D00000C0ED440000C9440080A34400208E44A3
:1026E0000040794400405C4400C03144004018443C
:1026F0000000FC430080CF430080AA4300008F43CA
:102700000000724300003043000009430000D4423F
:10271000CDCCAE42333373429A993542CDCC0C4284
:102720006666D6410000AC41000000410000204137
:102730000000504100008041000098410000C0416D
:102740000000F0410000104200001C42000048421E
:10275000000090420000B4420000DC42000004434C
:10276000000017430000364300005D430000704343
:10277000000091430000AC430000D3430000FE433F
:1027800000001D4400003E4400006B44004097449C
:102790000000C84400C0FD4400A020450000614581
:1027A0000020994500F0C8450068034600E01C463B
:1027B00000003C4200003842000034420000304239
:1027C00000002C4200002842000024420000204269
:1027D00000001C4200001842000014420000104299
:1027E00000000C42000008420000044200000042C9
:1027F0000000F8410000F0410000E8410000E04125
:102800000000D8410000D0410000C8410000C04194
:102810000000B8410000B0410000A8410000A04104
:102820000000984100009041000088410000804174
:1028300000007041000060411E001E001E000100EB
:1028400001003132334134353642373839432A308A
:0228500023441F
:00000001FF
